:020000040800F2
:10000000787E00207D020008B3210008F71B00085D
:10001000B1210008AD0300081D2900080000000000
:10002000000000000000000000000000C101000806
:100030009104000800000000150200085D2200087D
:10004000970200089702000897020008970200082C
:10005000970200089702000897020008970200081C
:10006000970200089304000897020008970200080E
:1000700097020008970200089702000897020008FC
:1000800097020008970200089702000897020008EC
:10009000B1030008970200089702000897020008C1
:1000A00097020008970200089702000897020008CC
:1000B00097020008970200089702000897020008BC
:1000C00097020008970200089702000897020008AC
:1000D000970200089702000897020008970200089C
:1000E000970200089702000897020008970200088C
:1000F000970200089702000897020008970200087C
:10010000970200089702000897020008970200086B
:100110009702000897020008970200086123000870
:1001200097020008C9030008D503000897020008D9
:10013000970200089702000897020008970200083B
:10014000BD03000897020008970200089702000804
:1001500097020008E10300089702000897020008D0
:10016000970200089702000897020008970200080B
:10017000970200089702000897020008000000009C
:1001800097020008970200089702000897020008EB
:1001900097020008970200089702000897020008DB
:1001A000000000000000000097020008DFF80CD0FB
:1001B00000F0EAF800480047352C0008787E00205F
:1001C0002B4B19680868B0E8F04F80F30988BFF33B
:1001D0006F8F4FF0000080F311887047000000001F
:1001E00006480068006880F3088862B661B6BFF30D
:1001F0004F8FBFF36F8F00DF00BF00BF08ED00E03F
:10020000DFF80C00016841F470010160704700BF25
:1002100088ED00E0EFF30980BFF36F8F144B1A688D
:100220001EF0100F08BF20ED108A20E9F04F10607B
:1002300008B44FF0500080F31188BFF34F8FBFF325
:100240006F8F03F04FFC4FF0000080F3118808BC63
:1002500019680868B0E8F04F1EF0100F08BFB0EC46
:10026000108A80F30988BFF36F8F704700BF00BF0B
:1002700028000020EFF30580704700000648804703
:1002800006480047FEE7FEE7FEE7FEE7FEE7FEE77B
:10029000FEE7FEE7FEE7FEE70D230008AD010008DC
:1002A0002DE9F05F0546002092469B4688460646AB
:1002B000814640241BE0284641464746224600F03E
:1002C00053F853465A46C01A914110D31146184666
:1002D000224600F03AF82D1A67EB01084F462246F5
:1002E0000120002100F031F817EB00094E41201EDB
:1002F000A4F10104DFDC484631462A464346BDE806
:10030000F09F40EA01039B0703D009E008C9121FD0
:1003100008C0042AFAD203E011F8013B00F8013BBF
:10032000521EF9D27047D2B201E000F8012B491EEB
:10033000FBD270470022F6E710B513460A46044682
:100340001946FFF7F0FF204610BD202A04DB203AB3
:1003500000FA02F1002070479140C2F1200320FA18
:1003600003F3194390407047202A04DB203A21FA16
:1003700002F00021704721FA02F3D040C2F12002BE
:100380009140084319467047064C074D06E0E06867
:1003900040F0010394E8070098471034AC42F6D3CC
:1003A000FFF708FF7C4500089C450008FEE70000B9
:1003B000014800F073B800000C010020014800F073
:1003C0006DB8000034010020014800F07DBA000043
:1003D000F0020020014800F077BA000090020020EF
:1003E000014800F071BA0000500300200168182392
:1003F000CAB2103AB2FBF3F2054B6FF30901032ABC
:100400009B5CC36500D9091D8165084670470000E3
:100410003845000810B5014600208B698A6A4FF004
:10042000C07453B1B3F5005F15D072B1012A0CD07E
:10043000022A0AD0032A09D104E01AB1012A06D0FF
:10044000022A03D1C96AC90100D5012010BDC96AB9
:10045000A142FAD010BD002AF7D0012AF2D0022A18
:10046000F3D0032AF3D010BD30B50468256825F415
:1004700080252560046863608368402B036803D08F
:1004800099600068C26030BD9A600068C16030BD8C
:100490007047082000F0A2BB704770472DE9F05F5D
:1004A0000546006800244669D0F804908768D0F8B3
:1004B0000CB0D0F810A0D0F81880F10748D0F90798
:1004C00014D001218160B80703D5284600F0F6F961
:1004D0000CE0780702D54FF4006407E0380702D536
:1004E0004FF4805402E0284600F0E7F9F80516D5ED
:1004F00029684FF480708860B80503D5284600F05D
:10050000DFF90CE0780502D544F4005407E0380523
:1005100002D544F4804402E0284600F0D0F9F80304
:1005200016D529684FF480308860B80303D5284673
:1005300000F0C8F90CE0780302D544F4004407E069
:10054000380302D544F4803402E0284600F0B9F9BB
:10055000300707D55FEACB6004D52968102044F442
:100560000074C86070074FF0080707D55FEA0B708A
:1005700004D52868C760284600F09AF9B00706D568
:100580002868C068800702D0284600F092F97006FB
:1005900007D55FEACA6004D52968102044F4806456
:1005A0000861B00607D55FEA0A7004D528680761BC
:1005B000284600F07FF9F00606D528680069800714
:1005C00002D0284600F077F9B00308D55FEAC96089
:1005D00005D5296810204860284600F06DF9F00321
:1005E00007D55FEA097004D528684760284600F0FF
:1005F0006AF9300446D55FEA497040D5F00504D564
:100600005FEAC87001D044F00104B00504D55FEA88
:10061000887001D544F00204700504D55FEA487083
:1006200001D544F00404300529D518F0700F26D008
:1006300008F07000402815D006DC102809D02028CA
:100640000AD0302816D10AE050280ED0602811D1E7
:100650000EE044F008040DE044F010040AE044F019
:10066000200407E044F0400404E044F0800401E08A
:1006700044F480742868816921F0700181612968DF
:1006800004204860002C05D0686A20436862284630
:10069000FFF703FFBDE8F09F70B5040003D094F8A6
:1006A000200010B104E0012070BD204600F082F867
:1006B0002068016821F00201016000F087FB054617
:1006C000052604E000F082FB401B0A2811D82068B0
:1006D00040688007F6D42068016841F0010101609C
:1006E00000F074FB05460BE000F070FB401B0A288D
:1006F00006D9606A40F40030606284F82060D2E776
:1007000020684068C007EFD0207E0128206801687B
:100710003DD021F080010160607E012820680168E1
:1007200038D021F040010160A07E012820680168D6
:1007300033D021F020010160E07E012820680168AB
:100740002ED041F010010160207F0128206801684F
:1007500029D021F008010160607F0128206801682C
:1007600024D021F004010160D4E902010843D4E956
:100770000412114308436168491E08432168C86197
:1007800000206062012084F82000002070BD41F04C
:100790008001C0E741F04001C5E741F02001CAE710
:1007A00021F01001CFE741F00801D4E741F0040146
:1007B000D9E70000F0B587B0044614216846FFF77A
:1007C000B9FD364B3648DFF8D0E01968D4F800C0E0
:1007D000334A03250226092710300024491CF4451A
:1007E00022D11960012907D1016841F0007101602F
:1007F000006800F000700590106840F0080010607C
:100800001068CDE9005600F00800CDE90470694693
:100810002448CDE9024500F0EDF90022052114201D
:1008200000F05EFB142033E0DFF87CE0F44531D1CA
:10083000D0F800C04CF0806CC0F800C0D0F800C008
:1008400001290CF0806CCDF814C0196007D1016843
:1008500041F000710160006800F0007005901068C0
:1008600040F002001060106802AB00F0020005903A
:100870004FF44050CDE9000683E8B00069460B48CC
:1008800000F0B8F900220521402000F029FB4020AB
:1008900000F01AFB07B0F0BD006400401400002017
:1008A00030380240000C0240006800400004024062
:1008B0007047704770477047704770477047704780
:1008C00070477047704770472DE9F84304464FF072
:1008D0000009CDF8009063484FF41651A56D0068EB
:1008E000B0FBF1F72E6894F85C10082000FA01F1D3
:1008F00031420FD021680A6852070BD50A6822F0EE
:1009000004020A6094F85C108840A860606D40F0B2
:100910000100606594F85C104FF0010808FA01F0DE
:10092000304208D021684969090604D5A860606D85
:1009300040F00200606594F85C100420884030426A
:1009400008D021680968890704D5A860606D40F067
:100950000400606594F85C1010208840304218D084
:1009600021680968090714D5A8602068016849034F
:1009700004D50068000308D5A16C07E00168C9052B
:1009800003D4016821F008010160216C09B12046FF
:10099000884794F85C1020208840304231D021688C
:1009A0000968C9062DD5A86094F835000528206887
:1009B000016806D0490347D5006800031DD4616C67
:1009C0001CE021F0160101602068416921F08001DE
:1009D0004161206C08B9A06C20B12068016821F049
:1009E0000801016094F85C103F208840A86084F8FA
:1009F000349084F83580216D1FE0E16B09B1204609
:100A00008847606D00282BD0606DC00714D005208A
:100A100084F835002068016821F001010160009828
:100A2000401C0090B84203D820680068C007F6D187
:100A300084F8349084F83580E16C002910D001B03E
:100A40002046BDE8F04308470168C905D5D40168D0
:100A500021F01001016084F8349084F83580CCE7EF
:100A6000BDE8F883240000202DE9F041044600F0A1
:100A7000ADF906465CB1002584F83450022084F8B4
:100A800035002068016821F0010101600DE00120BE
:100A9000BDE8F08100F09AF9801B052805D92020D7
:100AA0006065032084F83500F2E720680068C0071D
:100AB000F0D12268116820480140D4E901031843AD
:100AC000D4E903363343184363691843A3691843D1
:100AD000E3691843236A18430843616A042903D170
:100AE000D4E90B1319430843106020684069666A13
:100AF00020F0070130460E43012704280CD1A06ADC
:100B00000643E06A40B12046FFF784FC20B1402054
:100B1000606584F83570BAE7206846612046FFF7C3
:100B200065FC94F85C203F2191408160656584F804
:100B300035700020ACE700003F8010F02DE9F04157
:100B40000446866D90F83400002501280DD0012060
:100B500084F8340094F835700020012F07D084F811
:100B6000340002252846BDE8F0810220FBE7022779
:100B700084F8357060652046FFF776FC94F85C10C9
:100B80003F208840B0602068016841F01601016094
:100B90002068416941F080014161206C20B12068EA
:100BA000016841F0080101602068016841F001011D
:100BB0000160D7E770B5044600F008F90546601CEF
:100BC00002D004480078044400F000F9401BA04221
:100BD000FAD370BD1800002070470000044910B51A
:100BE0000A68024202D00860FFF7F6FF10BD00005D
:100BF000143C01402DE9F84FDFF890B100224FF08E
:100C000001084FF0030A4FF00F090BF1040E00BF6B
:100C10000B6808FA02F42340A3426ED14D68022DFE
:100C200001D0122D0ED1D50800EB850CDCF8205038
:100C30005607F70E09FA07F6B5430E69BE402E4374
:100C4000CCF82060066855000F790AFA05FC07F019
:100C5000030726EA0C06AF40374307604E68012EB3
:100C600005D0022E03D0112E01D0122E0ED187688E
:100C7000CE6827EA0C07AE403E4386604668A6432E
:100C80000C79C4F30014944034434460C4688E6803
:100C900024EA0C04AE402643C6604C68E4006FD5DD
:100CA0003B4C256845F480452560246822F0030507
:100CB00004F480440094374C2E19D6F80848950760
:100CC0002F0F09FA07F5AC43334DA84201D1002597
:100CD0002EE0324DA84201D1012529E0304DA84235
:100CE00001D1022524E02F4DA84201D103251FE0A8
:100CF0002D4DA84202D104251AE041E02B4DA84217
:100D000001D1052514E02A4DA84201D106250FE0A6
:100D1000284DA84201D107250AE0274DA84201D15C
:100D2000082505E0254DA84201D1092500E00A2546
:100D3000BD402543C6F80858DBF800405D464E68C4
:100D40009C43F60300D51C432C60DEF8004075463A
:100D50004E689C43B60300D51C432C600B4D0835F0
:100D60002C684E689C43F60200D51C432C60074D4E
:100D70000C352C684E689C43B60200D51C432C6091
:100D8000521C102AFFF444AFBDE8F88F003C01402C
:100D9000443802400030014000000240000402409C
:100DA00000080240000C0240001002400014024003
:100DB00000180240001C02400020024000240240B3
:100DC0000AB1816170470904FBE7000001488068AF
:100DD0007047000018000020024881680278114422
:100DE00081607047180000200B4810B5016841F47D
:100DF00000710160016841F480610160016841F4A3
:100E000080710160032000F08BF8002000F006F8EC
:100E100000F03EF8002010BD003C024010B5014635
:100E200088B00022372000F05BF8372000F04CF843
:100E300013480024016841F020010160006805A901
:100E400000F020000690684600F014F900F032F936
:100E50000C494000B0FBF1F10C480B4A491E0260FE
:100E600040F2E732C0E90324C0E9011400F059FB65
:100E700010B1012008B010BD044800F06EFBF9E786
:100E80004038024040420F0000140040B0030020F0
:100E90000C4882B0016841F480410160006800F4B0
:100EA000804000900748001F016841F080510160B8
:100EB0000068002200F0805000900F21901E02B0C8
:100EC00000F00EB84438024000F01F0201219140AA
:100ED0004009800000F1E020C0F8001170470000D8
:100EE000F0B40E4B1B680C46C3F30223C3F1070595
:100EF000042D00D90425191D072901D2002300E083
:100F0000DB1E012606FA05F1491E214099409E404C
:100F1000761E16403143F0BC01F04CB90CED00E0F8
:100F2000064900F0070208684FF6FF03184040EA40
:100F30000220034A10430860704700000CED00E0F7
:100F40000000FA052DE9F0470E46050065D0DFF8F0
:100F50001481D8F80000F7B200F00F00B04207D2B9
:100F600088F80070D8F8000000F00F00B04254D1AB
:100F700028683D4C810712D5400703D5206840F40E
:100F8000E05020602878000703D5206840F46040D6
:100F900020602068A96820F0F000084320602878CD
:100FA000C0072DD0304968680839012812D00228BE
:100FB00013D0032811D00968890700292DDA216888
:100FC00021F0030101432160FFF700FF814641F258
:100FD000883A0EE009688903EFE709688901ECE7C0
:100FE000FFF7F4FEA0EB0901514502D90320BDE84B
:100FF000F0872068696800F00C00B0EB810FEFD13A
:10100000D8F80010404601F00F01B14207D907702F
:10101000006800F00F00B04201D00120E7E7287817
:10102000400705D52068E96820F4E05008432060B7
:101030002878000706D52068296920F4604040EA36
:10104000C100206000F056F82168084AC1F303117E
:10105000515CC840064908600020FFF7DFFE002011
:10106000C5E70000003C0240083802404045000847
:10107000240000200F2202600C4A136803F00303CF
:101080004360136803F0F0038360136803F4E053D4
:10109000C36012684FF4E05303EAD20202610448CD
:1010A000006800F00F000860704700000838024038
:1010B000003C02400448054900680968044AC1F33D
:1010C0008221515CC840704724000020083802404B
:1010D000504500080448054900680968044AC1F3FE
:1010E0004231515CC840704724000020083802405B
:1010F00050450008154810B5006810F00C0214485F
:1011000013D01449042A0FD0082A0ED10F4C241FE3
:101110002268236802F03F025B0207D52068C0F313
:101120008810A0FB010106E0084610BD2168C1F34C
:101130008811A1FB00010023FFF7B2F82168C1F379
:101140000141491C4900B0FBF1F010BD08380240D4
:101150000024F400001BB7002DE9F84F050076D0FD
:101160002878DFF8F8B2BE4CC00749D0DBF8001091
:101170005846C1F38101012908D00068C0F38100FD
:1011800002280AD1201D0068400206D5206880038D
:1011900036D568680028E2D032E06868B0F5803F54
:1011A00010D0B0F5A02F206810D020F4803020603F
:1011B000206820F4802020606868A0B1FFF706FE58
:1011C00006460CE0206840F48030F4E740F48020CC
:1011D0002060F7E7FFF7FAFD801B642873D82068CA
:1011E0008003F7D50CE0FFF7F1FD064605E000BFF0
:1011F000FFF7ECFD801B6428F0D820688003F7D44B
:101200002878DFF8608280074FF000093ED5DBF8D0
:101210000010584611F00C0F09D00068C0F381008F
:1012200002280BD18D48001F0068400206D42068B8
:10123000800715D5E868012809D111E0E868B8B140
:101240000120C8F80000FFF7C1FD064605E002E1F5
:10125000FFF7BCFD801B0228C0D820688007F7D5A7
:101260002068296920F0F80040EAC10020600DE004
:10127000C8F80090FFF7AAFD064604E0FFF7A6FDB8
:10128000801B02281FD820688007F7D42878000721
:1012900022D5724E744869696C3671B101210160C2
:1012A000FFF794FD074604E0FFF790FDC01B0228FE
:1012B00009D830688007F7D50EE0C0F80090FFF736
:1012C00085FD074605E083E0FFF780FDC01B02288F
:1012D0007ED830688007F7D42878400768D5DFF8D3
:1012E0007CA100270AF1380ADAF80000C0000BD40C
:1012F000DAF8001041F08051CAF80010DAF8000066
:10130000012700F080500090584E3068C00510D47E
:10131000306840F480703060FFF758FD009005E0C1
:10132000FFF754FD0099401A022851D83068C005D3
:10133000F6D54A4EA868683601280FD005283068CF
:1013400010D020F001003060306820F004003060E0
:10135000A868B8B1FFF73AFD00900FE0306840F0A0
:101360000100F4E740F004003060F7E7FFF72EFDDE
:101370000099411A41F28830814264D83068800770
:10138000F4D50EE0FFF722FD009007E0FFF71EFD09
:101390000099411A41F28830814254D83068800760
:1013A000F4D42FB1DAF8001021F08051CAF80010FF
:1013B000A869C0B3DBF80010C1F3810102294AD04B
:1013C0000228484607D0C8F86000FFF7FFFC00E09D
:1013D00039E005463AE04746C8F86000FFF7F6FCFA
:1013E000064604E0FFF7F2FC801B02282BD8206899
:1013F0008001F7D4D5E907010843A96A1C4A4908C6
:1014000002EB01416A6A41EA8211084395F82C1007
:1014100040EA01611148001F016001203866FFF7B2
:10142000D5FC054605E014E0FFF7D0FC401B022880
:1014300009D820688001F7D50BE000BFFFF7C6FC94
:10144000401B022802D90320BDE8F88F20688001E4
:10145000F4D40020F8E70120F6E700000838024045
:101460000038024000004742800E474200700040B2
:101470000000FFFF7047704710B590F83820012A30
:1014800025D0012280F83820CA688C6822F4407286
:1014900022434C6822F4806222430C6822F40062EA
:1014A00022430C6922F4805222434C6922F40052F8
:1014B00022438C6922F48042224322F400410268D4
:1014C00000232143516480F83830002010BD0220F1
:1014D00010BD30B590F83820012A20D0012280F8C4
:1014E0003820022380F8393003685C6824F07004E7
:1014F0005C6003685C680D682C435C6003689C68F2
:1015000024F080049C6003689C6849680C439C60DC
:1015100080F83920002180F83810084630BD0220BC
:1015200030BD10B5040003D094F8390010B107E0C5
:10153000012010BD002084F83800204600F00CF88F
:10154000022084F83900211D206800F00FFF0120DF
:1015500084F83900002010BD70470168CA6842F065
:101560000102CA600068016841F0010101600020C9
:101570007047704770B50446006801694FF0000578
:10158000C943890715D4C168C943890711D4E91E25
:10159000016101202076206880698007204602D002
:1015A000FFF7E7FF04E000F003F9204600F0B2F98E
:1015B000257620680169C943490717D4C168C94322
:1015C000490713D46FF004010161022020762068DE
:1015D000806910F4407F204602D0FFF7CAFF04E084
:1015E00000F0E6F8204600F095F9257620680169BC
:1015F000C943090716D4C168C943090712D46FF05B
:1016000008010161042020762068C0698007204617
:1016100002D0FFF7AEFF04E000F0CAF8204600F069
:1016200079F9257620680169C943C90617D4C168CC
:10163000C943C90613D46FF0100101610820207658
:101640002068C06910F4407F204602D0FFF791FF68
:1016500004E000F0ADF8204600F05CF92576206843
:101660000169C943C90708D1C168C943C90704D181
:10167000891E0161204600F06BF920680169C943A9
:10168000090609D4C168C943090605D46FF0800171
:1016900001612046FFF7EEFE20680169C943490653
:1016A00009D4C168C943490605D46FF040010161FE
:1016B000204600F057F920680169C94389060BD418
:1016C000C168C943890607D46FF020010161204633
:1016D000BDE87040FFF7CFBE70BD000070B586B0AA
:1016E000044614216846FEF725FE226800242A4994
:1016F00002250123B2F1804F28D0284E2848B2425B
:1017000035D10A6842F480720A600A6802F4807275
:1017100005920A6842F080020A6009680093CDE9E8
:10172000015401F08001CDE9045103946946FFF7AB
:1017300061FA4FF4E0500090CDE901546946194830
:10174000CDE90345FFF756FA06B070BD086840F0D2
:10175000010008600868694600F0010005900F204C
:101760000090CDE90154CDE903430F48EAE70F4B60
:101770009A42E9D10A6842F480720A60096801F469
:101780008071059160210091CDE901540321CDE9DB
:1017900003416946D6E7000030380240000C0040A3
:1017A00000200240001C02400000024000040140F2
:1017B000704770B5044690F838000D4601280DD0EA
:1017C000012684F83860022084F8390042B1042AE6
:1017D00018D0082A2AD00C2A4DD139E0022070BD39
:1017E000206800F02FFE2068816941F008018161C6
:1017F0002068816921F004018161206881692A697A
:10180000114311E0206800F049FE2068816941F42D
:10181000006181612068816921F4806181612068B3
:1018200081692A6941EA0221816124E0206800F08F
:1018300067FE2068C16941F00801C1612068C16983
:1018400021F00401C1612068C1692A69114311E0D6
:10185000206800F085FE2068C16941F40061C16123
:101860002068C16921F48061C1612068C1692A6969
:1018700041EA0221C16184F83960002084F838000F
:1018800070BD10B5040003D094F8390010B107E022
:10189000012010BD002084F83800204600F00CF82C
:1018A000022084F83900211D206800F05FFD01202E
:1018B00084F83900002010BD08B501681248B1F164
:1018C000804F0BD0114A914210D1016841F00801BC
:1018D0000160006800F00800009008BD016841F058
:1018E00001010160006800F00100F5E7084881424D
:1018F000F3D10548001D016841F002010160006854
:1019000000F00200E8E7000040380240000C004010
:10191000000401407047000010B504460068012231
:1019200000F084FD08492068884202D007498842B7
:1019300003D1416C41F4004141642068016841F0E9
:1019400001010160002010BD0000014000040140C1
:1019500000680349884201D1FFF73EBA7047000092
:10196000001400407047704770B5040004D094F82C
:101970003900002510B106E0012070BD84F8385010
:10198000204600F023F8242084F839002068C1683C
:1019900021F40051C160204600F06AFE2068016910
:1019A00021F4904101612068416921F02A014161DF
:1019B0002068C16841F40051C160E563202084F8CB
:1019C000390084F83A00002070BD00002DE9F0478E
:1019D00086B0064614216846FEF7ACFC4F48DFF897
:1019E00038C133684D4914380225012703220024E9
:1019F0004FF4806A63453DD10B6843F010030B60E0
:101A0000096801F010010591016841F002010160CF
:101A1000016801F002010591016841F001010160D6
:101A20000068904600F00100059080204FF0070903
:101A30008DE8A10369463A48FFF7DCF828028DE8F3
:101A4000A10369463748FFF7D5F8384D3648286076
:101A5000F806C5E90104C5E9034A6C61AC61EC61B3
:101A60002C6228466C62FEF7FFFF08B1FEF714FDFA
:101A700075634DE0DFF8B8C063454AD10B6843F0A9
:101A800020030B60096801F020010591016841F015
:101A9000400101600068694600F0400005904FF485
:101AA00084408DE8A1000820CDE903202148FFF7FC
:101AB000A1F81E4D1C486035183828604FF020688A
:101AC000C5E90184C5E9034A6C61AC61EC612C6233
:101AD000574628466C62FEF7C7FF08B1FEF7DCFCEC
:101AE0007563AE63114D1048C0356030E5E80208FB
:101AF000402091C50D4845F81449C030AC61EC61F7
:101B00002C626C62FEF7B0FF08B1FEF7C5FC3563CE
:101B1000AE6306B0BDE8F0870010014044380240D3
:101B20000004024000000240406402409002002095
:101B30000014014000180240F8B5044690F83A003D
:101B400020283CD1C1B3BAB394F83800012836D06C
:101B5000012084F83800A162A2850025E5632220D7
:101B600084F83A00636B1748D863636B16481864AF
:101B7000636B1648D864606B134605650846666B50
:101B8000216802463046091DFEF7D8FF206801682B
:101B90004168009184F83850C16841F48071C16097
:101BA0002068416941F0010141612068416941F0CB
:101BB000400141610020F8BDFFE70120FBE7022062
:101BC000F9E70000FB25000837260008B1250008CA
:101BD000064910B5884208D1122205490348FFF78B
:101BE000ABFFBDE8104000F0F5BA10BD10020020B8
:101BF000C80000207047FEE70122D1020448FFF729
:101C0000DFF8012291030348FFF7DAF8FEE700004E
:101C100000100240001402404FF47A75124C6E42DC
:101C20006068A84202DD00F0C5FEF9E7B04202DAC2
:101C300000F084FEF4E7A068A84202DD00F032FF65
:101C4000EEE7B04202DA00F0F1FEE9E7E068A84210
:101C500002DD00F0ACFFE3E7B04202DA00F06BFF18
:101C6000DEE700F05BFFDBE79C000020012001F0D5
:101C70001DF8FBE70F4810B50D49016003214160D5
:101C800000214FF400228160C0E903124FF440129A
:101C90004261017641768176C17601774177FEF720
:101CA000FBFC002803D0BDE81040FEF7F5BB10BDDB
:101CB000006400400C0100200F4810B50D49016080
:101CC0000321416000214FF400228160C0E903122A
:101CD0004FF440124261017641768176C1760177F8
:101CE0004177FEF7D9FC002803D0BDE81040FEF78D
:101CF000D3BB10BD0068004034010020114808B576
:101D0000016841F4800101600068002200F4800055
:101D1000009005213920FFF7E3F83920FFF7D4F8C8
:101D2000002205213A20FFF7DBF83A20FFF7CCF834
:101D3000002205214520FFF7D3F8BDE808404520E3
:101D4000FFF7C2B83038024010B592B000200F90B3
:101D500001210FA800F0B6FF184C002201212061DC
:101D600017480068109010A800F0D6FF0221E0602C
:101D700000F0E4FF12491422091D6846FEF7C1FA7B
:101D80000021684600F0B1FF0D492060142218318F
:101D900005A8FEF7B6FA002105A800F0A6FF08493D
:101DA000606014222C310AA8FEF7ABFA00210AA8C1
:101DB00000F09BFFA06012B010BD000000000020EA
:101DC000F84400082DE9F04F87B014216846FEF76B
:101DD000B1FA54480024016841F010010160016823
:101DE00001F010010591016841F0400101600168B6
:101DF00001F040010591016841F0020101600168B4
:101E000001F002010591016841F0010101600168E2
:101E100001F001010591016841F0080101600168CC
:101E200001F008010591016841F4807101600168C9
:101E300001F480710591016841F080010160016841
:101E400001F080010591016841F020010160006806
:101E5000DFF8D4A000F020000590002240F6010138
:101E60005046FEF7ADFFDFF8C4B04FF4FF78002214
:101E700041465846FEF7A4FF4FF4804900224946E8
:101E80002B48FEF79DFF01250226CDE9025600955D
:101E9000694650460195FEF7ADFE08272548009794
:101EA000CDE9010469462448FEF7A4FECDF8008080
:101EB000CDE90154694658460394FEF79BFE28037A
:101EC0000090CDE90164CDE9034669461B48FEF761
:101ED00091FE4FF4C070CDE900060320CDE9024029
:101EE000694604975046FEF785FEE8020090CDE96A
:101EF0000154694650460394FEF77CFECDF80090ED
:101F0000CDE9015469460A480394FEF773FE0022A6
:101F100005210920FEF7E4FF0920FEF7D5FF07B0F1
:101F2000BDE8F08F30380240001002400018024037
:101F3000001402400000111000040240000C024096
:101F400010B58AB0002407941C2168460894FEF757
:101F5000F1F922484FF0804101605421C0E9011499
:101F600044F61F61C0E90314FFF78BFC08B1FEF7CC
:101F700093FA079407A919480894FFF7AAFA08B139
:101F8000FEF78AFA602000904FF47A70CDE90104E0
:101F90000022694611480494FFF70BFC08B1FEF7D4
:101FA0007BFA042269460D48FFF703FC08B1FEF7EF
:101FB00073FA082269460948FFF7FBFB08B1FEF7F0
:101FC0006BFA0C2269460548FFF7F3FB08B1FEF7F0
:101FD00063FA0248FFF782FB0AB010BD5C010020E3
:101FE00010B58AB0002407941C2168460894FEF7B7
:101FF000A1F92348214901605421C0E9011444F6A4
:102000001F61C0E90314FFF73CFC08B1FEF744FA76
:10201000079407A91A480894FFF75BFA08B1FEF77E
:102020003BFA602000904FF47A70CDE90104002261
:10203000694613480494FFF7BCFB08B1FEF72CFA7D
:10204000042269460E48FFF7B4FB08B1FEF724FAF4
:10205000082269460A48FFF7ACFB08B1FEF71CFAF4
:102060000C2269460648FFF7A4FB08B1FEF714FAF4
:102070000348FFF733FB0AB010BD0000000C00401E
:102080009801002010B590B000240E941C216846E1
:102090000F94FEF74FF91C2107A8FEF74BF92548CE
:1020A000234901605421C0E9011444F61F61C0E9CD
:1020B00003144461FFF7E5FB08B1FEF7EDF90E9458
:1020C0000EA91C480F94FFF704FA08B1FEF7E4F9D3
:1020D000602000904FF47A70CDE9010403940494D9
:1020E00005940022694613480694FFF762FB08B185
:1020F000FEF7D2F9042269460E48FFF75AFB08B1F1
:10210000FEF7CAF90794089409944FF400500A9412
:10211000CDE90B4007A907480D94FFF7ADF908B1C9
:10212000FEF7BAF90348FFF7D9FA10B010BD000066
:1021300000040140D40100200D4810B50B49016096
:102140000C49416000214FF480628160C0E90312B4
:102150000C22C0E90521C161FFF706FC002803D06D
:10216000BDE81040FEF798B910BD00000010014016
:1021700010020020A08601000C4810B50A49016039
:102180004FF416514160002181600C22C160C0E90A
:1021900004128161C161FFF7E7FB002803D0BDE8AD
:1021A0001040FEF779B910BD001401405002002024
:1021B000FEE770470907090E002806DA00F00F0055
:1021C00000F1E02080F8141D704700F1E02080F855
:1021D0000014704770B51D480188C1F30A021C49FC
:1021E0000A804378A2F58062DC08837844EA4314CD
:1021F000C4F30A044C80C5789B0943EA850503793A
:10220000A4F5806445EA8325C5F30A058D804079ED
:102210005B0843EAC013C3F30A038609CB800E723E
:10222000C0F3011048720B4804EB8401A5F58065EA
:10223000416002EB8201816005EB8501A3F58063BB
:10224000C16003EB8301016170BD0000C800002084
:10225000000100209C0000207047000010B55020B5
:1022600080F31188BFF34F8FBFF36F8F01F07AFFB8
:1022700018B104494FF080500860002080F31188A5
:1022800010BD000004ED00E030B593B03021684689
:10229000FEF750F814210CA8FEF74CF81948002559
:1022A000016841F080510160006800F08050119099
:1022B0001548016841F4404101600068022400F4BF
:1022C0004040119001200090000401908001CDE970
:1022D000064006200890A820CDE9090404200B90B0
:1022E0006846FEF739FF0CA90F2081E831004FF452
:1022F000A0500F90E002109005210CA8FEF722FEDE
:1023000013B030BD403802400070004010480168F2
:1023100041F4700101600F48016841F00101016062
:102320000C4A00210832116002680B4B1A4002600F
:10233000031D0A4A1A60026822F4802202600548DE
:102340000C3001600249580680390860704700006F
:1023500088ED00E000380240FFFFF6FE1030002458
:102360000148FFF707B90000B0030020F0B502688C
:10237000234B244D244E254F254C4FF0804C984242
:1023800009D0604507D0A84205D0B04203D0B8427A
:1023900001D0A04204D122F0700E4A6842EA0E0237
:1023A00098421BD0604519D0A84217D0B04215D032
:1023B000B84213D0A04211D0164DA8420ED0164DEF
:1023C000A8420BD0154DA84208D0154DA84205D003
:1023D000144DA84202D0144DA84203D122F44075F6
:1023E000CA682A4302608A68C2620A6882629842A6
:1023F00001D0A04201D10969016301214161F0BD11
:10240000000001400004004000080040000C0040B3
:1024100000040140004001400044014000480140E8
:1024200000180040001C00400020004010B50123AF
:10243000046A8B409C430462036A8A40134303622C
:1024400010BD000030B5026A22F001020262026A89
:10245000436884690D6824F07304254322F0020464
:102460008A6822430B4CA04202D00B4CA0420BD1F5
:1024700022F00804CA6823F4407322434C6922F016
:1024800004021C438B6923434360856149684163AF
:10249000026230BD000001400004014030B5026A14
:1024A00022F010020262026A436884690D6824F413
:1024B000E64444EA05248D6822F0200242EA05122F
:1024C0000D4DA84202D00D4DA8420ED1CD6822F08C
:1024D000800242EA05124D6923F4406343EA850312
:1024E0008D6922F0400243EA8503436084614968B4
:1024F0008163026230BD0000000001400004014021
:1025000030B5026A22F480720262036A4268C469CA
:1025100023F4007324F073050C682C438D6843EAA0
:1025200005230D4DA84202D00C4DA8420ED1CD6816
:1025300023F4006343EA05234D6922F4405242EA42
:1025400005128D6923F4806342EA05124260C4617A
:102550004968C163036230BD0000014000040140CE
:1025600030B5026A22F480520262046A4268C3698A
:102570000D6823F4E64343EA05238D6824F40054F0
:1025800044EA0534084DA84202D0084DA84204D1BF
:102590004D6922F4804242EA85124260C361496873
:1025A0000164046230BD00000000014000040140ED
:1025B00070B5846B2068406994F83910C0F3C0107E
:1025C0000025212904D118B1E584204600F046F801
:1025D0002068406994F83A10C0F38010222904D191
:1025E00018B1E585204600F02BF8E06B40F01000B4
:1025F000E0632046FFF7B7F970BD10B50146806B68
:1026000009680968C90513D40021C1850168CA6831
:1026100022F48072CA6001684A6922F001024A61AC
:1026200001684A6922F040024A61202180F83A108C
:10263000FFF7CEFA10BD10B5806BFFF7DBFA10BDC7
:102640000168CA6822F49072CA6001684A6922F07F
:1026500001024A61202180F83A1070470168CA6877
:1026600022F0C002CA60202180F8391070470000B3
:102670002DE9F04104460068016921F44052E16807
:10268000114301612168C86849F20C6290432369D3
:10269000A268E5691A4363692B431A430243CA607F
:1026A0002168486920F44072A06910434861E169DB
:1026B0006425B1F5004F9748974A21684FF03208DA
:1026C0003FD0914201D081427CD1FEF703FD00EB67
:1026D000C00101EB001061688900B0FBF1F6FEF764
:1026E000F9FC00EBC00101EB001061688900B0FB50
:1026F000F1F0B0FBF5F06FF01801484306EB8001F4
:1027000008EB0110B0FBF5F000F0F006FEF7E2FC7C
:1027100000EBC00101EB001061688900B0FBF1F033
:10272000B0FBF5F006EB0016FEF7D4FC00EBC001A1
:1027300001EB001061688900B0FBF1F7FEF7CAFCFD
:10274000D2E0914201D081423DD1FEF7C3FC00EBC3
:10275000C00101EB001061684900B0FBF1F0B0FB73
:10276000F5F00601FEF7B6FC00EBC00101EB00102E
:1027700061684900B0FBF1F7FEF7ACFC00EBC0016B
:1027800001EB001061684900B0FBF1F0B0FBF5F01F
:102790006FF01801484307EB800108EBC100B0FB64
:1027A000F5F000F0F80006EB4006FEF793FC00EBB6
:1027B000C00101EB001061684900B0FBF1F7FEF7C2
:1027C00089FC3CE055E0FEF775FC00EBC00101EB35
:1027D000001061684900B0FBF1F0B0FBF5F00601B4
:1027E000FEF768FC00EBC00101EB001061684900D6
:1027F000B0FBF1F7FEF75EFC00EBC00101EB00104F
:1028000061684900B0FBF1F0B0FBF5F06FF0180122
:10281000484307EB800108EBC100B0FBF5F000F086
:10282000F80006EB4006FEF745FC00EBC00101EBAB
:10283000001061684900B0FBF1F7FEF73BFC00EBCC
:10284000C00101EB001061684900B0FBF1F0B0FB82
:10285000F5F06FF01801484307EB800108EBC10069
:10286000B0FBF5F000F00700216830448860BDE857
:10287000F081FEF71FFC00EBC00101EB0010616866
:102880008900B0FBF1F6FEF715FC00EBC00101EB8F
:10289000001061688900B0FBF1F0B0FBF5F06FF05B
:1028A0001801484306EB800108EB0110B0FBF5F07E
:1028B00000F0F006FEF7FEFB00EBC00101EB00109C
:1028C00061688900B0FBF1F0B0FBF5F006EB001693
:1028D000FEF7F0FB00EBC00101EB0010616889001E
:1028E000B0FBF1F7FEF7E6FB00EBC00101EB0010D7
:1028F00061688900B0FBF1F0B0FBF5F06FF01801F2
:10290000484307EB800108EB0110B0FBF5F000F045
:102910000F00A9E70014014000100140FEE702E0AB
:1029200008C8121F08C1002AFAD17047704700205A
:1029300001E001C1121F002AFBD170477FB532248C
:102940004625CDE90054CDE902546E233C211A46B8
:10295000084600F02FFE4FF496763046FEF72AF92F
:102960006E233C210094019402941A460846039475
:1029700000F020FEC820FEF71DF93C236E21CDE9B2
:1029800000451A460846CDE9024500F013FE3046E0
:10299000FEF710F93C236E210094019402941A462C
:1029A0000846039400F006FE04B0C820BDE870405D
:1029B000FEF700B97FB5462532246E233C21CDE9D0
:1029C00000451A460846CDE9024500F0F3FD4FF4F4
:1029D00096763046FEF7EEF86E233C210094019483
:1029E00002941A460846039400F0E4FDC820FEF75E
:1029F000E1F8CDE90054CDE902543C236E211A469A
:102A0000084600F0D7FD3046FEF7D4F83C236E218F
:102A10000094019402941A460846039400F0CAFDFB
:102A200004B0C820BDE87040FEF7C4B87FB53224BA
:102A30004625CDE90054CDE902546E233C221946C7
:102A4000104600F0B7FD4FF496763046FEF7B2F828
:102A50006E233C220094019402941946104603947C
:102A600000F0A8FDC820FEF7A5F83C236E22CDE9B2
:102A7000004519461046CDE9024500F09BFD304661
:102A8000FEF798F83C236E220094019402941946B4
:102A90001046039400F08EFD04B0C820BDE87040DD
:102AA000FEF788B87FB5462532246E233C22CDE957
:102AB000004519461046CDE9024500F07BFD4FF474
:102AC00096763046FEF776F86E233C220094019409
:102AD000029419461046039400F06CFDC820FEF7DE
:102AE00069F8CDE90054CDE902543C236E22194621
:102AF000104600F05FFD3046FEF75CF83C236E2286
:102B000000940194029419461046039400F052FD7B
:102B100004B0C820BDE87040FEF74CB81FB53220A5
:102B2000552300900190029003901A4619461846CA
:102B300000F040FD1FBD7FB5322441256423CDE95F
:102B40000054CDE902541A461946184600F032FDE9
:102B50004FF496763046FEF72DF8642300940194E6
:102B600002941A4619461846039400F023FDC82023
:102B7000FEF720F83723CDE900451A4619461846D6
:102B8000CDE9024500F016FD3046FEF713F8372375
:102B90000094019402941A4619461846039400F0D2
:102BA00009FD04B0C820BDE87040FEF703B87FB54A
:102BB000322441253723CDE90054CDE902541A4689
:102BC0001946184600F0F6FC4FF496763046FDF7AD
:102BD000F1FF37230094019402941A4619461846CF
:102BE000039400F0E7FCC820FDF7E4FF6423CDE97F
:102BF00000451A4619461846CDE9024500F0DAFCB0
:102C00003046FDF7D7FF64230094019402941A46DE
:102C100019461846039400F0CDFC04B0C820BDE866
:102C20007040FDF7C7BFEFF30580002800D00120FA
:102C300070470000FEF7D8F8FFF726FBFFF7C2F851
:102C4000FFF75CF8FFF716F8FFF736F8FFF774FAAE
:102C5000FFF792FAFFF774F9FFF7C2F9FFF712FADC
:102C60000A48FEF77AFC0A48FEF777FC0948FEF7A7
:102C700074FC00F0FBFC122207490848FEF75CFFD9
:102C8000FFF762F800F019F8FEE700005C01002091
:102C900098010020D4010020C8000020100200206C
:102CA00001460020842900D0C81C704710B500B927
:102CB000012000F023FE002010BD10B500F0D2FE70
:102CC000002010BD10B5012901D0002010BD032245
:102CD0000021012000F0A4FF040004D000231A46C4
:102CE000194601F0BBF8204610BD3EB504460D461E
:102CF000B0F90800FFF7D4FF02A9CDE90001208A4E
:102D00002B4682B2D4E9001001F0ECF9012801D081
:102D100000203EBD02983EBD08B500680090012924
:102D200007D0002013460246012103A001F066FBF4
:102D300008BD0120F6E70000000000002DE9FC417D
:102D4000002507462E4601950C0000D10124FFF70F
:102D50006AFF009690B101AB22460921384601F086
:102D60009BFB012812D1019888B10A494FF080508D
:102D70000860BFF34F8FBFF36F8F08E00023224638
:102D80000421384601F088FB012800D0FF252846A1
:102D9000BDE8FC8104ED00E02DE9F041184C0F4640
:102DA0000546E6682068001D00F092FC38B92068EE
:102DB00090F82C1001208840216981432161681C12
:102DC00007D137B12168BDE8F0410E48091D00F078
:102DD000B7BC20683544B5424560216805D2A06B78
:102DE000BDE8F041091D00F093BC606B091D00F0C7
:102DF0008FFCA06A854200D2A562BDE8F081000088
:102E000028000020080500202DE9F041054600F0CB
:102E1000A3FC2E4CA068401CA06020682C4F10B171
:102E2000606940B32DE02560A068012829D1002603
:102E300006EB860007EB800000F05CFC761C072E9A
:102E4000F6D323488C3000F055FC2148A03000F028
:102E500051FC1F48B43000F04DFC1D48C83000F054
:102E600049FC1B48DC3000F045FC19488C3060639D
:102E70001430A06305E02068E96AC06A884200D87F
:102E80002560606A401C6062E96A0120226988400E
:102E90001043206101EB810007EB8000291D00F049
:102EA0004FFC00F079FC606900280CD02068E96ACA
:102EB000C06A884207D207494FF080500860BFF3CC
:102EC0004F8FBFF36F8FBDE8F08100002800002016
:102ED0002C04002004ED00E010B500F03DFC0E4C89
:102EE0002068A0B90D4800F005FC0C48143000F033
:102EF00001FC0A48E0601430206100220C210A2005
:102F000000F08EFE206010B105A100F0C1FCBDE80C
:102F1000104000F041BC0000640000201C050020AF
:102F2000546D72510000000070B5114E114C17E045
:102F300000F0D0FD3068B8B101F0FEF900F00CFCF3
:102F4000F068C568281D00F0C3FBA068401EA060A3
:102F50006068401E606000F01FFC284600F055F8D5
:102F600060680028E4D170BD01F0E6F9F8E70000E0
:102F7000F40400202800002030B4026C0B46002A24
:102F80000BD0C1681144C1604468A14201D30168FB
:102F9000C16030BC1846FDF7B4B930BC70472DE9AC
:102FA000F041856B174604460026026C82B1C7B11A
:102FB000E068FDF7A6F9E168206C091AE160226873
:102FC000914202D26168081AE060022F16D017E021
:102FD0002068A8B9606801F029F906460020606001
:102FE0000EE0A068FDF78DF9216CA0680844A06090
:102FF0006168884204D32068A06001E005B16D1EBD
:103000006D1CA5633046BDE8F08110B50446006B29
:1030100000F0D6FB2046BDE8104000F0D1BB000018
:103020000F4847F23051420705D0C01D0C4A20F02E
:103030000700821A891A0B4A00230144C2E90003DF
:103040000839103A21F0070111604B600B600B1A30
:10305000C0E9001393604FF000405360D0607047A8
:103060004405002088000020074C4FF08056074D93
:10307000FFF75AFF20680128FAD92E60BFF34F8F5F
:10308000BFF36F8FF4E700002C04002004ED00E094
:103090002DE9F0479A46DDE9098481466FF0030384
:1030A000206B03EB82021044089D20F00706700796
:1030B00007D0502080F31188BFF34F8FBFF36F8F7D
:1030C000FEE723180A5C83F834200A5C12B1401C26
:1030D0001028F6D3002784F84370072D00D3062567
:1030E000E562C4E91157201D00F00FFB04F1180040
:1030F00000F00BFB2461C5F107006462A061E76486
:1031000084F8507052464946304600F03DFA20603F
:10311000B8F1000F01D0C8F80040BDE8F08700000A
:1031200030B5114900E011460A688242FBD34B6872
:103130005C18844203D140681844486008464368DC
:103140001C18944209D1084C103C2468A24209D0B2
:1031500052681A4442600A6812680260814200D0D4
:10316000086030BD0460F9E78800002070B50024D5
:1031700041600B4D0061914206D8D11A826991429B
:1031800006D2011D286907E09A4203D2994201D371
:10319000012403E0011DE86800F0BAFA204670BD82
:1031A0006400002010B5044600F0D6FAA06B28B1E8
:1031B0005FF0000400F0F0FA204610BD0124F9E7AA
:1031C00030B587B02B4D4BE00498002848DB069CB7
:1031D000606910B1201D00F07BFA02A800F0B6F87B
:1031E000024604980A283BD2DFE800F00505053ABC
:1031F000263705053A260598A1690346014420466D
:10320000FFF7B4FF00B3616A20468847E0690128F0
:1032100026D1002000900598A16900234218194684
:10322000204601F039F978B9502080F31188BFF3B6
:103230004F8FBFF36F8FFEE70598A06128B181180B
:1032400013462046FFF792FF0AE0502080F31188D2
:10325000BFF34F8FBFF36F8FFEE7204600F0B0FA49
:1032600000231A4604A9286800F0FEFC0028ABD110
:1032700007B030BD640000202DE9FC410F46054633
:1032800000F028FC01A800F061F80446019818B18C
:1032900001F052F8BDE8FC81224EAFB13069006800
:1032A000A8B30027291B3A46306800F005FB01F05F
:1032B00043F80028EED11C494FF080500860BFF35E
:1032C0004F8FBFF36F8FE5E7A542EBD801F034F8DD
:1032D000F0682746C068C468201D00F0F9F9E0696D
:1032E000012810D1A0692B4641193A462046FFF724
:1032F0003DFF40B100200346014600902A4620468B
:1033000001F0CAF820B1616A20468847C2E707E0A9
:10331000502080F31188BFF34F8FBFF36F8FFEE70C
:103320000127BFE76400002004ED00E00648416B80
:10333000096829B1416BC968C968496881627047E9
:103340004FF0FF31FAE700002800002070B5054675
:1033500000F002FF064E0446B068844203D200F03B
:1033600009F8012000E0002028602046B46070BD0C
:1033700064000020F8B5194D1FE0C068C4680668F5
:10338000201D00F0A5F9616A20468847E069012800
:1033900013D1A0693044B04206D924616060211D78
:1033A000E86800F0B5F908E0002003460146009007
:1033B0003246204601F070F838B1E868016800290B
:1033C000DBD12969C5E90310F8BD502080F31188CD
:1033D000BFF34F8FBFF36F8FFEE700006400002044
:1033E00008484068401C4FF0500080F3118804D01A
:1033F000BFF34F8FBFF36F8FFEE7BFF34F8FBFF366
:103400006F8FFEE790000020074CE068016841B133
:10341000C0680021D0F80000FFF72EFFFFF7D0FEB4
:10342000F3E701210020F7E7640000202DE9F041D7
:10343000044600F091F994F9455004F1240609E09E
:10344000606A48B1304600F03DFF08B100F07CFAF8
:103450006D1E6DB2002DF3DC4FF0FF3684F8456031
:1034600000F09AF900F078F994F9445004F110074B
:1034700009E0206948B1384600F024FF08B100F0A7
:1034800063FA6D1E6DB2002DF3DC84F84460BDE874
:10349000F04100F081B900002DE9F0410546002718
:1034A00000F018FB314E306808B9FFF7B9FDF0683D
:1034B00005424BD1C5B3083568070ED005F00700AB
:1034C000C0F108000544680707D0502080F3118838
:1034D000BFF34F8FBFF36F8FFEE72DB37068854248
:1034E00034D82248103001460C6801E020460C46D2
:1034F0006168A94202D221680029F7D131688C4263
:1035000024D007682168016060680837411B1029D2
:103510000FD96019420708D0502080F31188BFF3FB
:103520004F8FBFF36F8FFEE710E041606560FFF7DC
:10353000F7FD61687068401A7060B268904200D20E
:10354000B060F06801430020C4E9000100F0F4FE1F
:10355000780707D0502080F31188BFF34F8FBFF357
:103560006F8FFEE73846BDE8F0810000780000204C
:103570000449086818B10868826C521C82640868A3
:10358000704700002800002010B5031F4FF0807422
:103590001C601B1F21F001011960191F044B0B60F7
:1035A00014390A60091F6FF0020244380A6010BD26
:1035B000E13300082DE9F04308AC2A4E94E8A0025C
:1035C0004FF4FA6460434FF4877490FBF4F830686A
:1035D000DDF81CC008F5FA78C0F83C80CCF5877C93
:1035E0004FF4FA680CFB08FC9CFBF4FC0CF5FA7C2D
:1035F000C0F840C005FB08F595FBF4F505F5FA7534
:103600004563C1F5877000FB08F090FBF4F031686A
:1036100000F5FA70886302FB08F292FBF4F112489D
:1036200001F5FA7102689163C7F58771424651430B
:1036300091FBF4F1026801F5FA715163424609FB0E
:1036400002F191FBF4F1006801F5FA710164C3F530
:103650008771514391FBF4F101F5FA71C163BDE843
:10366000F0830000980100205C01002010B50021CB
:103670001448FEF751F904211248FEF74DF90821CC
:103680001048FEF749F90C210E48FEF745F90021D4
:103690000D48FEF741F904210B48FEF73DF90821DA
:1036A0000948FEF739F90C210748FEF735F90021E2
:1036B0000648FEF731F9BDE8104004210348FEF743
:1036C0002BB900005C01002098010020D4010020EB
:1036D000D0E9013201699A60D0E901235A604A6851
:1036E000824201D182684A60002202610868401E5D
:1036F0000860704700F108014FF0FF32C0E9011285
:10370000C1600161002101607047002101617047C3
:1037100030B50B685A1C02D000F1080202E00269C1
:1037200004E02246546825689D42FAD953684B60EC
:1037300099608A60516008610168491C016030BD70
:1037400042684A6093688B60936859609160086131
:103750000168491C01607047502080F31188BFF355
:103760004F8FBFF36F8F0A494868401C486001289B
:103770000CD10848006810F0FF0F07D0502080F3EC
:103780001188BFF34F8FBFF36F8FFEE770470000C4
:103790009000002004ED00E00849486828B1401E70
:1037A000486001D180F311887047502080F3118860
:1037B000BFF34F8FBFF36F8FFEE700009000002034
:1037C00070B5002827D0144DA0F108046168E8689E
:1037D000014207D1502080F31188BFF34F8FBFF310
:1037E0006F8FFEE722683AB1502080F31188BFF353
:1037F0004F8FBFF36F8FFEE78143616000F06AF97E
:1038000060686968084468602046FFF789FCBDE885
:10381000704000F091BD70BD7800002006484FF464
:103820007A710068B0FBF1F14FF0E020491E416170
:1038300007210161704700002400002010B5FCF74B
:1038400019FD114910280ED300F1E02090F8F00383
:103850000A78904207D2502080F31188BFF34F8F2F
:10386000BFF36F8FFEE709480068896800F4E060E5
:10387000884207D9502080F31188BFF34F8FBFF3E0
:103880006F8FFEE710BD0000900000200CED00E0FF
:1038900010B5084B002200BF53F832401CB1521C37
:1038A000082AF9D310BD43F8321003EBC201486077
:1038B00010BD0000EC03002070B515460E4604460E
:1038C000FFF74AFF94F944100020491C01D184F805
:1038D000440094F94510491C01D184F84500FFF7D4
:1038E0005BFFA06B28B92A46314604F1240000F0A2
:1038F00049F82046BDE87040FFF798BD10B50200BA
:1039000014D00F48006B38B1502080F31188BFF3FA
:103910004F8FBFF36F8FFEE700F0DCF800211046F9
:10392000FFF73AFA00F008FD002807D105494FF0EB
:1039300080500860BFF34F8FBFF36F8F10BD000042
:103940002800002004ED00E001490120C861704713
:103950002800002010B50C4650B1094909681831FB
:10396000FFF7D6FE2046BDE810400121FFF714BA4C
:10397000502080F31188BFF34F8FBFF36F8FFEE7A6
:103980002800002070B514460D4668B10A49096840
:103990001831FFF7D5FE0CB14FF0FF352146284610
:1039A000BDE87040FFF7F8B9502080F31188BFF3ED
:1039B0004F8FBFF36F8FFEE72800002070B5040023
:1039C00039D01D4DE06A2968C96A884233D2A0699E
:1039D000002804DB2868C06AC0F10700A061E16A22
:1039E000164E01EB8101606906EB810188421FD10F
:1039F000201DFFF76DFE012150B9E06A00EB800247
:103A000056F8222022B92A6901FA00F082432A617D
:103A10002868C06AE0622A6981401143296100EB8D
:103A2000800006EB8000211DBDE87040FFF788BED6
:103A30002868C06AE06270BD280000202C040020C5
:103A400028B107490A6A0260C9684160704750207E
:103A500080F31188BFF34F8FBFF36F8FFEE7000035
:103A6000280000201CB517480024CDE9004023465B
:103A7000802215A1164800F035FB012803D100F083
:103A8000E5FC012809D0401C1AD1502080F3118890
:103A9000BFF34F8FBFF36F8FFEE7502080F3118885
:103AA000BFF34F8FBFF36F8F06484FF0FF312C38B5
:103AB000816201214161C460BDE81C4000F040B852
:103AC0001CBD00005400002049444C45000000008B
:103AD000693000080248016B491C0163704700000F
:103AE000280000201448016B11B10121C161704709
:103AF0000021C1610169B1FA81F1C1F11F0101EB3E
:103B000081020E4951F822306BB101EB820101F1C3
:103B100008034A6852684A609A4201D152684A6072
:103B2000D16801607047502080F31188BFF34F8F38
:103B3000BFF36F8FFEE70000280000202C04002058
:103B40001CB532480168324A914207D1502080F3B7
:103B50001188BFF34F8FBFF36F8FFEE700682C49CA
:103B6000491E884207D1502080F31188BFF34F8F40
:103B7000BFF36F8FFEE7274908780190FF20087098
:103B800008788DF800009DF800009DF8002000F0F6
:103B9000F000904207D0502080F31188BFF34F8F80
:103BA000BFF36F8FFEE79DF800001B4A00F0500046
:103BB00010700720906005E09DF800305B008DF8E4
:103BC0000030401E9DF800301B06F5D4000200F4C2
:103BD000E0609060019808700C482030016841F462
:103BE00070010160016841F070410160FFF716FE4D
:103BF00000205060FCF704FB0848016841F0404198
:103C00000160FCF7EDFA00201CBD000000ED00E0B3
:103C100071C20F4100E400E09000002034EF00E0AA
:103C200070B50E46050013D0D6B105FB06F048303E
:103C3000FFF732FC040009D004F1480120468EB1A0
:103C40000160C0E90F56012100F0C4F8204670BDA4
:103C5000502080F31188BFF34F8FBFF36F8FFEE7C3
:103C60000020E4E70060ECE72DE9FF4F002683B079
:103C70009B468A46040003D0BAF1000F08D011E039
:103C8000502080F31188BFF34F8FBFF36F8FFEE793
:103C9000206C38B1502080F31188BFF34F8FBFF3F1
:103CA0006F8FFEE700F04AFADFF824814FF0000939
:103CB0004FF0805748B9059838B1502080F31188EB
:103CC000BFF34F8FBFF36F8FFEE7FFF745FDA56B87
:103CD00045B351462046E668FFF74EF9BBF1000FA9
:103CE00013D0E660606A50B104F1240000F0EAFAF3
:103CF00028B1C8F80070BFF34F8FBFF36F8FFFF785
:103D00004BFD012007B0BDE8F08F6D1EA563206854
:103D100010B9FFF72DFC606020690028EFD004F196
:103D20001000E3E7059808B11EB106E0FFF734FD87
:103D300027E06846FFF784FE0126FFF72DFDFFF719
:103D4000C9FEFFF709FD94F94400401C01D184F835
:103D5000449094F94500401C01D184F84590FFF748
:103D60001BFD05A9684600F087F9002820460AD007
:103D7000FFF75CFB00F0E0FA2046FFF713FA00289B
:103D8000A3D00020BEE7FFF70DFAD8B1206830B904
:103D9000FFF7E2FC6068FFF711FEFFF7FDFC04F19E
:103DA00024000599FFF7D6FD2046FFF73FFB00F002
:103DB000C3FA002889D1C8F80070BFF34F8FBFF352
:103DC0006F8F82E72046FFF731FB00F0B5FA7CE702
:103DD00004ED00E070B50D46040025D0FFF7BCFCF3
:103DE000D4E90F20216802FB001161600021A1636A
:103DF0002168A1600A46D4E90F01401E00FB0121A1
:103E0000E16021464FF0FF3001F8440F487004F1A3
:103E100010008DB1FFF76EFC04F12400FFF76AFC7F
:103E2000FFF7BAFC012070BD502080F31188BFF36A
:103E30004F8FBFF36F8FFEE721690029F0D000F0AC
:103E400041FA0028ECD004494FF080500860BFF3DD
:103E50004F8FBFF36F8FE3E704ED00E02DE9FF47DD
:103E600082B01D468A464FF00008040003D0BAF124
:103E7000000F08D011E0502080F31188BFF34F8F5E
:103E8000BFF36F8FFEE7206C38B1502080F31188AC
:103E9000BFF34F8FBFF36F8FFEE7022D0AD1E06BA8
:103EA000012807D0502080F31188BFF34F8FBFF354
:103EB0006F8FFEE700F042F93F4F4FF000094FF0DF
:103EC000805648B9049838B1502080F31188BFF368
:103ED0004F8FBFF36F8FFEE7FFF73EFCA06BE16BE8
:103EE000884207D3022D05D00498D0B1B8F1000F55
:103EF0001AD01EE02A4651462046FFF750F8616A64
:103F000019B104F1240000F0DDF920B13E60BFF3E7
:103F10004F8FBFF36F8FFFF73FFC012006B0BDE866
:103F2000F087FFF739FC22E06846FFF789FD4FF084
:103F30000108FFF731FCFFF7CDFDFFF70DFC94F909
:103F40004400401C01D184F8449094F94500401C81
:103F500001D184F84590FFF71FFC04A9684600F0E2
:103F60008BF830B12046FFF761FA00F0E5F9002048
:103F7000D4E7FFF7F1FBA06BE16B884213D1FFF7A9
:103F80000BFC04F110000499FFF7E4FC2046FFF756
:103F90004DFA00F0D1F900289ED13E60BFF34F8F5B
:103FA000BFF36F8F98E7FFF7F7FB2046FFF73EFA66
:103FB00000F0C2F990E7000004ED00E02DE9F047C1
:103FC0001F4690468946040003D0B9F1000F08D07F
:103FD00011E0502080F31188BFF34F8FBFF36F8F34
:103FE000FEE7206C38B1502080F31188BFF34F8F6B
:103FF000BFF36F8FFEE7022F0AD1E06B012807D0D5
:10400000502080F31188BFF34F8FBFF36F8FFEE70F
:10401000FFF714FC5020EFF3118680F31188BFF3F3
:104020004F8FBFF36F8FA06BE16B884206D3022FD7
:1040300004D0002086F31188BDE8F08794F945503C
:104040003A4649462046FEF7AAFF681C04D06D1C7C
:1040500084F845500120EDE7606A0028FAD004F1A9
:10406000240000F02FF90028F4D0B8F1000FF1D0AF
:104070000121C8F80010EDE770B50D46040019D015
:1040800005B3FFF769FB164AD1682868431C0FD0B7
:104090002368126A934202D062688A421AD962681F
:1040A000891A814216D2401A28602046FFF7C8FCC0
:1040B000002410E0502080F31188BFF34F8FBFF32E
:1040C0006F8FFEE7502080F31188BFF34F8FBFF34F
:1040D0006F8FFEE70124FFF75FFB204670BD0000F5
:1040E000280000202DE9FF5F8346DDE90E87994611
:1040F00016468A469000FFF7CFF905001AD05420E3
:10410000FFF7CAF9040012D025630021CDE902416E
:10411000CDE900874B46324651465846FEF7B8FF78
:104120002046FEF771FE012004B0BDE8F09F28464E
:10413000FFF746FB4FF0FF30F6E700000548416906
:1041400019B1006B18B100207047012070470220A0
:1041500070470000280000200148C0687047000038
:10416000280000202DE9F0412E4C0027206B40B1A3
:10417000A069401CA061E06900B101273846BDE894
:10418000F081E668761CE66013D1606B006838B198
:10419000502080F31188BFF34F8FBFF36F8FFEE77E
:1041A000606BA16B6163A063206A401C2062FFF713
:1041B000BDF8A06ADFF87080864209D3606B0068A2
:1041C00080B1606BC068C568686886420DD2A06225
:1041D0002068C06A00EB800158F821000128CAD984
:1041E0000127C8E74FF0FF30F1E7281DFFF770FA0D
:1041F000A86A18B105F11800FFF76AFAE86A012108
:10420000226981401143216100EB800108EB8100AC
:10421000291DFFF795FAE86A2168C96A8842CDD35B
:104220000127CBE7280000202C04002070B50400F3
:104230004FF0000140D0214D2868844207D0502023
:1042400080F31188BFF34F8FBFF36F8FFEE7A06C31
:1042500038B1401EA064636CE26A9A422CD040B12F
:104260002AE0502080F31188BFF34F8FBFF36F8F88
:10427000FEE7201DFFF72CFA114A012150B9E06A30
:1042800000EB800352F8233023B92B6901FA00F0C8
:1042900083432B61606CE062C0F10700A061E06ABB
:1042A0002B6981401943296100EB800002EB8000FB
:1042B000211DFFF745FA0121084670BD28000020A6
:1042C0002C0400202DE9F041C068C468ACB104F1B1
:1042D00018000746FFF7FCF9154D286B0126A0B121
:1042E00039461448FFF72CFAE06A2968C96A8842FF
:1042F0001CD90120EE61BDE8F081502080F31188C7
:10430000BFF34F8FBFF36F8FFEE7201DFFF7E0F97C
:10431000E16A2A6906FA01F01043286101EB810085
:104320000449B43901EB8000211DDBE70020E2E7FE
:1043300028000020E00400202DE9F0472C4D002447
:104340002746286B38B1FFF707FA286B401E286311
:10435000286B40B146E0502080F31188BFF34F8FA7
:10436000BFF36F8FFEE7A968224E0120D1B3A6F1FB
:10437000B40980463068E8B1F068C46804F11800F8
:10438000FFF7A6F9201DFFF7A3F9E06A2A6908FAEA
:1043900000F11143296100EB800109EB8100211D2F
:1043A000FFF7CEF9E06A2968C96A8842E2D3C5F806
:1043B0001C80DFE70CB1FEF7B9FFAC6944B146469B
:1043C000FFF7D0FE00B1EE61641EF9D10020A861B4
:1043D000E86938B10849012738070860BFF34F8FF3
:1043E000BFF36F8FFFF7D8F93846BDE8F0870000BC
:1043F00028000020E004002004ED00E02DE9F04753
:104400000746994616460D462820DDF820A0FFF7FE
:1044100043F804000ED0B8464F46D1466DB1FEF7C2
:104420005BFD04F11801C4F8008081E8E002201D62
:10443000FFF76BF92046BDE8F087502080F3118824
:10444000BFF34F8FBFF36F8FFEE700001CB5FEF781
:1044500043FD0D48006868B10B490320091DCDE9F3
:10446000000100234FF4807208A10A48FFF73AFECA
:10447000002807D1502080F31188BFF34F8FBFF37E
:104480006F8FFEE71CBD000064000020546D722099
:104490005376630009340008FEB51E461346020039
:1044A000089D4FF0000014D0124C2768002F0FD049
:1044B000CDE900130292062915DAFFF73FFE022824
:1044C0004FF000030DD0002269462068FFF7C6FCBC
:1044D000FEBD502080F31188BFF34F8FBFF36F8F65
:1044E000FEE72A46F0E70023324669463846FFF7E2
:1044F00065FDFEBD640000205922000870450008DB
:104500006D1C00080000000000000000800000009A
:1045100064450008F91B00080000000000000000CE
:104520008000000058450008191C00080000000029
:104530000000000000100000000610160006101613
:104540000000000000000000010203040607080943
:104550000000000001020304526F626F7454617323
:104560006B0000004C454453686F775461736B00D7
:104570004D52314F74686572000000009C45000880
:10458000000000209C0000001E290008384600089A
:104590009C000020DC7D00002E29000800000000A7
:1045A000000000000000000000000000000000000B
:1045B00000000000010000001000000000000000EA
:1045C0000024F400000000000000000000000000D3
:1045D00000000000000000000000000000000000DB
:1045E00000000000000000000000000000000000CB
:1045F00000000000000000000000000000000000BB
:1046000000000000000000000000000000000000AA
:10461000000000000000000000000000000000009A
:10462000000000000000000000000000000000008A
:08463000AAAAAAAA00000000DA
:04000005080001AD41
:00000001FF
